{
  "contractName": "ERC223Token",
  "abi": [
    {
      "inputs": [
        {
          "internalType": "string",
          "name": "new_name",
          "type": "string"
        },
        {
          "internalType": "string",
          "name": "new_symbol",
          "type": "string"
        },
        {
          "internalType": "uint8",
          "name": "new_decimals",
          "type": "uint8"
        },
        {
          "internalType": "uint256",
          "name": "new_totalsupply",
          "type": "uint256"
        }
      ],
      "stateMutability": "nonpayable",
      "type": "constructor"
    },
    {
      "anonymous": false,
      "inputs": [
        {
          "indexed": true,
          "internalType": "address",
          "name": "from",
          "type": "address"
        },
        {
          "indexed": true,
          "internalType": "address",
          "name": "to",
          "type": "address"
        },
        {
          "indexed": false,
          "internalType": "uint256",
          "name": "value",
          "type": "uint256"
        }
      ],
      "name": "Transfer",
      "type": "event"
    },
    {
      "anonymous": false,
      "inputs": [
        {
          "indexed": false,
          "internalType": "bytes",
          "name": "data",
          "type": "bytes"
        }
      ],
      "name": "TransferData",
      "type": "event"
    },
    {
      "inputs": [
        {
          "internalType": "address",
          "name": "",
          "type": "address"
        }
      ],
      "name": "balances",
      "outputs": [
        {
          "internalType": "uint256",
          "name": "",
          "type": "uint256"
        }
      ],
      "stateMutability": "view",
      "type": "function"
    },
    {
      "inputs": [],
      "name": "standard",
      "outputs": [
        {
          "internalType": "string",
          "name": "",
          "type": "string"
        }
      ],
      "stateMutability": "pure",
      "type": "function"
    },
    {
      "inputs": [],
      "name": "name",
      "outputs": [
        {
          "internalType": "string",
          "name": "",
          "type": "string"
        }
      ],
      "stateMutability": "view",
      "type": "function"
    },
    {
      "inputs": [],
      "name": "symbol",
      "outputs": [
        {
          "internalType": "string",
          "name": "",
          "type": "string"
        }
      ],
      "stateMutability": "view",
      "type": "function"
    },
    {
      "inputs": [],
      "name": "decimals",
      "outputs": [
        {
          "internalType": "uint8",
          "name": "",
          "type": "uint8"
        }
      ],
      "stateMutability": "view",
      "type": "function"
    },
    {
      "inputs": [],
      "name": "totalSupply",
      "outputs": [
        {
          "internalType": "uint256",
          "name": "",
          "type": "uint256"
        }
      ],
      "stateMutability": "view",
      "type": "function"
    },
    {
      "inputs": [
        {
          "internalType": "address",
          "name": "_owner",
          "type": "address"
        }
      ],
      "name": "balanceOf",
      "outputs": [
        {
          "internalType": "uint256",
          "name": "",
          "type": "uint256"
        }
      ],
      "stateMutability": "view",
      "type": "function"
    },
    {
      "inputs": [
        {
          "internalType": "address",
          "name": "_to",
          "type": "address"
        },
        {
          "internalType": "uint256",
          "name": "_value",
          "type": "uint256"
        }
      ],
      "name": "transfer",
      "outputs": [
        {
          "internalType": "bool",
          "name": "success",
          "type": "bool"
        }
      ],
      "stateMutability": "nonpayable",
      "type": "function"
    },
    {
      "inputs": [
        {
          "internalType": "address",
          "name": "_to",
          "type": "address"
        },
        {
          "internalType": "uint256",
          "name": "_value",
          "type": "uint256"
        },
        {
          "internalType": "bytes",
          "name": "_data",
          "type": "bytes"
        }
      ],
      "name": "transfer",
      "outputs": [
        {
          "internalType": "bool",
          "name": "success",
          "type": "bool"
        }
      ],
      "stateMutability": "nonpayable",
      "type": "function"
    }
  ],
  "bytecode": "0x60806040523480156200001157600080fd5b50604051620013313803806200133183398181016040528101906200003791906200023d565b83600090805190602001906200004f929190620000ed565b50826001908051906020019062000068929190620000ed565b5081600260006101000a81548160ff021916908360ff1602179055508060038190555080600460003373ffffffffffffffffffffffffffffffffffffffff1673ffffffffffffffffffffffffffffffffffffffff1681526020019081526020016000206000828254620000dc919062000342565b9250508190555050505050620004e3565b828054620000fb90620003ec565b90600052602060002090601f0160209004810192826200011f57600085556200016b565b82601f106200013a57805160ff19168380011785556200016b565b828001600101855582156200016b579182015b828111156200016a5782518255916020019190600101906200014d565b5b5090506200017a91906200017e565b5090565b5b80821115620001995760008160009055506001016200017f565b5090565b6000620001b4620001ae846200030f565b620002db565b905082815260208101848484011115620001cd57600080fd5b620001da848285620003b6565b509392505050565b600082601f830112620001f457600080fd5b8151620002068482602086016200019d565b91505092915050565b6000815190506200022081620004af565b92915050565b6000815190506200023781620004c9565b92915050565b600080600080608085870312156200025457600080fd5b600085015167ffffffffffffffff8111156200026f57600080fd5b6200027d87828801620001e2565b945050602085015167ffffffffffffffff8111156200029b57600080fd5b620002a987828801620001e2565b9350506040620002bc8782880162000226565b9250506060620002cf878288016200020f565b91505092959194509250565b6000604051905081810181811067ffffffffffffffff8211171562000305576200030462000480565b5b8060405250919050565b600067ffffffffffffffff8211156200032d576200032c62000480565b5b601f19601f8301169050602081019050919050565b60006200034f826200039f565b91506200035c836200039f565b9250827fffffffffffffffffffffffffffffffffffffffffffffffffffffffffffffffff0382111562000394576200039362000422565b5b828201905092915050565b6000819050919050565b600060ff82169050919050565b60005b83811015620003d6578082015181840152602081019050620003b9565b83811115620003e6576000848401525b50505050565b600060028204905060018216806200040557607f821691505b602082108114156200041c576200041b62000451565b5b50919050565b7f4e487b7100000000000000000000000000000000000000000000000000000000600052601160045260246000fd5b7f4e487b7100000000000000000000000000000000000000000000000000000000600052602260045260246000fd5b7f4e487b7100000000000000000000000000000000000000000000000000000000600052604160045260246000fd5b620004ba816200039f565b8114620004c657600080fd5b50565b620004d481620003a9565b8114620004e057600080fd5b50565b610e3e80620004f36000396000f3fe608060405234801561001057600080fd5b50600436106100935760003560e01c80635a3b7e42116100665780635a3b7e421461012257806370a082311461014057806395d89b4114610170578063a9059cbb1461018e578063be45fd62146101be57610093565b806306fdde031461009857806318160ddd146100b657806327e235e3146100d4578063313ce56714610104575b600080fd5b6100a06101ee565b6040516100ad9190610b88565b60405180910390f35b6100be610280565b6040516100cb9190610baa565b60405180910390f35b6100ee60048036038101906100e991906108fd565b61028a565b6040516100fb9190610baa565b60405180910390f35b61010c6102a2565b6040516101199190610bc5565b60405180910390f35b61012a6102b9565b6040516101379190610b88565b60405180910390f35b61015a600480360381019061015591906108fd565b6102f6565b6040516101679190610baa565b60405180910390f35b61017861033f565b6040516101859190610b88565b60405180910390f35b6101a860048036038101906101a39190610926565b6103d1565b6040516101b59190610b27565b60405180910390f35b6101d860048036038101906101d39190610962565b61062e565b6040516101e59190610b27565b60405180910390f35b6060600080546101fd90610d39565b80601f016020809104026020016040519081016040528092919081815260200182805461022990610d39565b80156102765780601f1061024b57610100808354040283529160200191610276565b820191906000526020600020905b81548152906001019060200180831161025957829003601f168201915b5050505050905090565b6000600354905090565b60046020528060005260406000206000915090505481565b6000600260009054906101000a900460ff16905090565b60606040518060400160405280600681526020017f6572633232330000000000000000000000000000000000000000000000000000815250905090565b6000600460008373ffffffffffffffffffffffffffffffffffffffff1673ffffffffffffffffffffffffffffffffffffffff168152602001908152602001600020549050919050565b60606001805461034e90610d39565b80601f016020809104026020016040519081016040528092919081815260200182805461037a90610d39565b80156103c75780601f1061039c576101008083540402835291602001916103c7565b820191906000526020600020905b8154815290600101906020018083116103aa57829003601f168201915b5050505050905090565b6000806040518060400160405280600481526020016000815250905082600460003373ffffffffffffffffffffffffffffffffffffffff1673ffffffffffffffffffffffffffffffffffffffff168152602001908152602001600020546104389190610c6e565b600460003373ffffffffffffffffffffffffffffffffffffffff1673ffffffffffffffffffffffffffffffffffffffff1681526020019081526020016000208190555082600460008673ffffffffffffffffffffffffffffffffffffffff1673ffffffffffffffffffffffffffffffffffffffff168152602001908152602001600020546104c69190610c18565b600460008673ffffffffffffffffffffffffffffffffffffffff1673ffffffffffffffffffffffffffffffffffffffff1681526020019081526020016000208190555061051284610876565b15610587578373ffffffffffffffffffffffffffffffffffffffff16638943ec023385846040518463ffffffff1660e01b815260040161055493929190610ae9565b600060405180830381600087803b15801561056e57600080fd5b505af1158015610582573d6000803e3d6000fd5b505050505b8373ffffffffffffffffffffffffffffffffffffffff163373ffffffffffffffffffffffffffffffffffffffff167fddf252ad1be2c89b69c2b068fc378daa952ba7f163c4a11628f55a4df523b3ef856040516105e49190610baa565b60405180910390a37f3ba9136826ac751de05d770d8d34fa4440ada49a5fb0e9aa1678aece66dad9768160405161061b9190610b66565b60405180910390a1600191505092915050565b600083600460003373ffffffffffffffffffffffffffffffffffffffff1673ffffffffffffffffffffffffffffffffffffffff1681526020019081526020016000205461067b9190610c6e565b600460003373ffffffffffffffffffffffffffffffffffffffff1673ffffffffffffffffffffffffffffffffffffffff1681526020019081526020016000208190555083600460008773ffffffffffffffffffffffffffffffffffffffff1673ffffffffffffffffffffffffffffffffffffffff168152602001908152602001600020546107099190610c18565b600460008773ffffffffffffffffffffffffffffffffffffffff1673ffffffffffffffffffffffffffffffffffffffff1681526020019081526020016000208190555061075585610876565b156107cc578473ffffffffffffffffffffffffffffffffffffffff16638943ec02338686866040518563ffffffff1660e01b81526004016107999493929190610aa9565b600060405180830381600087803b1580156107b357600080fd5b505af11580156107c7573d6000803e3d6000fd5b505050505b8473ffffffffffffffffffffffffffffffffffffffff163373ffffffffffffffffffffffffffffffffffffffff167fddf252ad1be2c89b69c2b068fc378daa952ba7f163c4a11628f55a4df523b3ef866040516108299190610baa565b60405180910390a37f3ba9136826ac751de05d770d8d34fa4440ada49a5fb0e9aa1678aece66dad9768383604051610862929190610b42565b60405180910390a160019050949350505050565b600080823b905060008111915050919050565b60008135905061089881610dda565b92915050565b60008083601f8401126108b057600080fd5b8235905067ffffffffffffffff8111156108c957600080fd5b6020830191508360018202830111156108e157600080fd5b9250929050565b6000813590506108f781610df1565b92915050565b60006020828403121561090f57600080fd5b600061091d84828501610889565b91505092915050565b6000806040838503121561093957600080fd5b600061094785828601610889565b9250506020610958858286016108e8565b9150509250929050565b6000806000806060858703121561097857600080fd5b600061098687828801610889565b9450506020610997878288016108e8565b935050604085013567ffffffffffffffff8111156109b457600080fd5b6109c08782880161089e565b925092505092959194509250565b6109d781610ca2565b82525050565b6109e681610cb4565b82525050565b60006109f88385610bf6565b9350610a05838584610cf7565b610a0e83610dc9565b840190509392505050565b6000610a2482610be0565b610a2e8185610bf6565b9350610a3e818560208601610d06565b610a4781610dc9565b840191505092915050565b6000610a5d82610beb565b610a678185610c07565b9350610a77818560208601610d06565b610a8081610dc9565b840191505092915050565b610a9481610ce0565b82525050565b610aa381610cea565b82525050565b6000606082019050610abe60008301876109ce565b610acb6020830186610a8b565b8181036040830152610ade8184866109ec565b905095945050505050565b6000606082019050610afe60008301866109ce565b610b0b6020830185610a8b565b8181036040830152610b1d8184610a19565b9050949350505050565b6000602082019050610b3c60008301846109dd565b92915050565b60006020820190508181036000830152610b5d8184866109ec565b90509392505050565b60006020820190508181036000830152610b808184610a19565b905092915050565b60006020820190508181036000830152610ba28184610a52565b905092915050565b6000602082019050610bbf6000830184610a8b565b92915050565b6000602082019050610bda6000830184610a9a565b92915050565b600081519050919050565b600081519050919050565b600082825260208201905092915050565b600082825260208201905092915050565b6000610c2382610ce0565b9150610c2e83610ce0565b9250827fffffffffffffffffffffffffffffffffffffffffffffffffffffffffffffffff03821115610c6357610c62610d6b565b5b828201905092915050565b6000610c7982610ce0565b9150610c8483610ce0565b925082821015610c9757610c96610d6b565b5b828203905092915050565b6000610cad82610cc0565b9050919050565b60008115159050919050565b600073ffffffffffffffffffffffffffffffffffffffff82169050919050565b6000819050919050565b600060ff82169050919050565b82818337600083830152505050565b60005b83811015610d24578082015181840152602081019050610d09565b83811115610d33576000848401525b50505050565b60006002820490506001821680610d5157607f821691505b60208210811415610d6557610d64610d9a565b5b50919050565b7f4e487b7100000000000000000000000000000000000000000000000000000000600052601160045260246000fd5b7f4e487b7100000000000000000000000000000000000000000000000000000000600052602260045260246000fd5b6000601f19601f8301169050919050565b610de381610ca2565b8114610dee57600080fd5b50565b610dfa81610ce0565b8114610e0557600080fd5b5056fea26469706673582212205c2bc993ff823c7a50e01b6e009f20c8adcacfaf3d59ddb914ec3ed0af2c56c664736f6c63430008000033",
  "immutableReferences": {},
  "source": "// SPDX-License-Identifier: GPL-3.0\r\npragma solidity ^0.8.0;\r\n\r\nimport \"./IERC223.sol\";\r\nimport \"./IERC223Recipient.sol\";\r\nimport \"./utils/Address.sol\";\r\n\r\n/**\r\n */\r\ncontract ERC223Token is IERC223 {\r\n\r\n    string  private _name;\r\n    string  private _symbol;\r\n    uint8   private _decimals;\r\n    uint256 private _totalSupply;\r\n    \r\n    mapping(address => uint256) public balances; // List of user balances.\r\n\r\n  \r\n    constructor(string memory new_name, string memory new_symbol, uint8 new_decimals, uint256 new_totalsupply)\r\n    {\r\n        _name     = new_name;\r\n        _symbol   = new_symbol;\r\n        _decimals = new_decimals;\r\n        _totalSupply = new_totalsupply;\r\n        balances[msg.sender] += new_totalsupply;\r\n\r\n    }\r\n\r\n    function standard() public pure override returns (string memory)\r\n    {\r\n        return \"erc223\";\r\n    }\r\n\r\n    function name() public view override returns (string memory)\r\n    {\r\n        return _name;\r\n    }\r\n\r\n  \r\n    function symbol() public view override returns (string memory)\r\n    {\r\n        return _symbol;\r\n    }\r\n\r\n    function decimals() public view override returns (uint8)\r\n    {\r\n        return _decimals;\r\n    }\r\n\r\n    function totalSupply() public view override returns (uint256)\r\n    {\r\n        return _totalSupply;\r\n    }\r\n\r\n    function balanceOf(address _owner) public view override returns (uint256)\r\n    {\r\n        return balances[_owner];\r\n    }\r\n\r\n    function transfer(address _to, uint _value, bytes calldata _data) public override returns (bool success)\r\n    {\r\n   \r\n        balances[msg.sender] = balances[msg.sender] - _value;\r\n        balances[_to] = balances[_to] + _value;\r\n        if(Address.isContract(_to)) {\r\n            IERC223Recipient(_to).tokenReceived(msg.sender, _value, _data);\r\n        }\r\n        emit Transfer(msg.sender, _to, _value);\r\n        emit TransferData(_data);\r\n        return true;\r\n    }\r\n\r\n    function transfer(address _to, uint _value) public override returns (bool success)\r\n    {\r\n        bytes memory _empty = hex\"00000000\";\r\n        balances[msg.sender] = balances[msg.sender] - _value;\r\n        balances[_to] = balances[_to] + _value;\r\n        if(Address.isContract(_to)) {\r\n            IERC223Recipient(_to).tokenReceived(msg.sender, _value, _empty);\r\n        }\r\n        emit Transfer(msg.sender, _to, _value);\r\n        emit TransferData(_empty);\r\n        return true;\r\n    }\r\n}",
  "sourcePath": "C:\\Users\\buvan\\OneDrive\\Desktop\\tt\\contracts\\ERC223.sol",
  "compiler": {
    "name": "solc",
    "version": "0.8.0+commit.c7dfd78e.Emscripten.clang"
  },
  "schemaVersion": "3.4.4",
  "updatedAt": "2022-01-20T13:15:14.365Z",
  "devdoc": {
    "kind": "dev",
    "methods": {},
    "version": 1
  },
  "userdoc": {
    "kind": "user",
    "methods": {},
    "version": 1
  }
}