{
  "contractName": "TokenVesting",
  "abi": [
    {
      "inputs": [
        {
          "internalType": "uint256",
          "name": "_vestingStartTime",
          "type": "uint256"
        },
        {
          "internalType": "address",
          "name": "_founderWallet",
          "type": "address"
        },
        {
          "internalType": "address",
          "name": "_advisorAddress",
          "type": "address"
        },
        {
          "internalType": "address",
          "name": "_teamAddress",
          "type": "address"
        },
        {
          "internalType": "address",
          "name": "_tokenContractAddress",
          "type": "address"
        }
      ],
      "stateMutability": "nonpayable",
      "type": "constructor"
    },
    {
      "anonymous": false,
      "inputs": [
        {
          "indexed": true,
          "internalType": "address",
          "name": "previousOwner",
          "type": "address"
        },
        {
          "indexed": true,
          "internalType": "address",
          "name": "newOwner",
          "type": "address"
        }
      ],
      "name": "OwnershipTransferred",
      "type": "event"
    },
    {
      "anonymous": false,
      "inputs": [
        {
          "indexed": false,
          "internalType": "uint256",
          "name": "amount",
          "type": "uint256"
        }
      ],
      "name": "Released",
      "type": "event"
    },
    {
      "anonymous": false,
      "inputs": [],
      "name": "Revoked",
      "type": "event"
    },
    {
      "stateMutability": "payable",
      "type": "fallback"
    },
    {
      "inputs": [],
      "name": "owner",
      "outputs": [
        {
          "internalType": "address",
          "name": "",
          "type": "address"
        }
      ],
      "stateMutability": "view",
      "type": "function"
    },
    {
      "inputs": [],
      "name": "renounceOwnership",
      "outputs": [],
      "stateMutability": "nonpayable",
      "type": "function"
    },
    {
      "inputs": [
        {
          "internalType": "address",
          "name": "newOwner",
          "type": "address"
        }
      ],
      "name": "transferOwnership",
      "outputs": [],
      "stateMutability": "nonpayable",
      "type": "function"
    },
    {
      "stateMutability": "payable",
      "type": "receive"
    },
    {
      "inputs": [
        {
          "internalType": "address",
          "name": "_beneficiary",
          "type": "address"
        }
      ],
      "name": "getVestingSchedulesCountByBeneficiary",
      "outputs": [
        {
          "internalType": "uint256",
          "name": "",
          "type": "uint256"
        }
      ],
      "stateMutability": "view",
      "type": "function"
    },
    {
      "inputs": [
        {
          "internalType": "uint256",
          "name": "index",
          "type": "uint256"
        }
      ],
      "name": "getVestingIdAtIndex",
      "outputs": [
        {
          "internalType": "bytes32",
          "name": "",
          "type": "bytes32"
        }
      ],
      "stateMutability": "view",
      "type": "function"
    },
    {
      "inputs": [
        {
          "internalType": "address",
          "name": "holder",
          "type": "address"
        },
        {
          "internalType": "uint256",
          "name": "index",
          "type": "uint256"
        }
      ],
      "name": "getVestingScheduleByAddressAndIndex",
      "outputs": [
        {
          "components": [
            {
              "internalType": "bool",
              "name": "initialized",
              "type": "bool"
            },
            {
              "internalType": "address",
              "name": "beneficiary",
              "type": "address"
            },
            {
              "internalType": "uint256",
              "name": "cliff",
              "type": "uint256"
            },
            {
              "internalType": "uint256",
              "name": "start",
              "type": "uint256"
            },
            {
              "internalType": "uint256",
              "name": "duration",
              "type": "uint256"
            },
            {
              "internalType": "uint256",
              "name": "slicePeriodSeconds",
              "type": "uint256"
            },
            {
              "internalType": "bool",
              "name": "revocable",
              "type": "bool"
            },
            {
              "internalType": "uint256",
              "name": "amountTotal",
              "type": "uint256"
            },
            {
              "internalType": "uint256",
              "name": "released",
              "type": "uint256"
            },
            {
              "internalType": "bool",
              "name": "revoked",
              "type": "bool"
            }
          ],
          "internalType": "struct TokenVesting.VestingSchedule",
          "name": "",
          "type": "tuple"
        }
      ],
      "stateMutability": "view",
      "type": "function"
    },
    {
      "inputs": [],
      "name": "getVestingSchedulesTotalAmount",
      "outputs": [
        {
          "internalType": "uint256",
          "name": "",
          "type": "uint256"
        }
      ],
      "stateMutability": "view",
      "type": "function"
    },
    {
      "inputs": [],
      "name": "getToken",
      "outputs": [
        {
          "internalType": "address",
          "name": "",
          "type": "address"
        }
      ],
      "stateMutability": "view",
      "type": "function"
    },
    {
      "inputs": [
        {
          "internalType": "address",
          "name": "_beneficiary",
          "type": "address"
        },
        {
          "internalType": "uint256",
          "name": "_cliff",
          "type": "uint256"
        },
        {
          "internalType": "uint256",
          "name": "_duration",
          "type": "uint256"
        },
        {
          "internalType": "uint256",
          "name": "_slicePeriodSeconds",
          "type": "uint256"
        },
        {
          "internalType": "bool",
          "name": "_revocable",
          "type": "bool"
        },
        {
          "internalType": "uint256",
          "name": "_amount",
          "type": "uint256"
        }
      ],
      "name": "createVestingSchedule",
      "outputs": [],
      "stateMutability": "nonpayable",
      "type": "function"
    },
    {
      "inputs": [
        {
          "internalType": "bytes32",
          "name": "vestingScheduleId",
          "type": "bytes32"
        }
      ],
      "name": "revoke",
      "outputs": [],
      "stateMutability": "nonpayable",
      "type": "function"
    },
    {
      "inputs": [
        {
          "internalType": "uint256",
          "name": "amount",
          "type": "uint256"
        }
      ],
      "name": "withdraw",
      "outputs": [],
      "stateMutability": "nonpayable",
      "type": "function"
    },
    {
      "inputs": [
        {
          "internalType": "bytes32",
          "name": "vestingScheduleId",
          "type": "bytes32"
        },
        {
          "internalType": "uint256",
          "name": "amount",
          "type": "uint256"
        }
      ],
      "name": "release",
      "outputs": [],
      "stateMutability": "nonpayable",
      "type": "function"
    },
    {
      "inputs": [],
      "name": "getVestingSchedulesCount",
      "outputs": [
        {
          "internalType": "uint256",
          "name": "",
          "type": "uint256"
        }
      ],
      "stateMutability": "view",
      "type": "function"
    },
    {
      "inputs": [
        {
          "internalType": "bytes32",
          "name": "vestingScheduleId",
          "type": "bytes32"
        }
      ],
      "name": "computeReleasableAmount",
      "outputs": [
        {
          "internalType": "uint256",
          "name": "",
          "type": "uint256"
        }
      ],
      "stateMutability": "view",
      "type": "function"
    },
    {
      "inputs": [
        {
          "internalType": "bytes32",
          "name": "vestingScheduleId",
          "type": "bytes32"
        }
      ],
      "name": "getVestingSchedule",
      "outputs": [
        {
          "components": [
            {
              "internalType": "bool",
              "name": "initialized",
              "type": "bool"
            },
            {
              "internalType": "address",
              "name": "beneficiary",
              "type": "address"
            },
            {
              "internalType": "uint256",
              "name": "cliff",
              "type": "uint256"
            },
            {
              "internalType": "uint256",
              "name": "start",
              "type": "uint256"
            },
            {
              "internalType": "uint256",
              "name": "duration",
              "type": "uint256"
            },
            {
              "internalType": "uint256",
              "name": "slicePeriodSeconds",
              "type": "uint256"
            },
            {
              "internalType": "bool",
              "name": "revocable",
              "type": "bool"
            },
            {
              "internalType": "uint256",
              "name": "amountTotal",
              "type": "uint256"
            },
            {
              "internalType": "uint256",
              "name": "released",
              "type": "uint256"
            },
            {
              "internalType": "bool",
              "name": "revoked",
              "type": "bool"
            }
          ],
          "internalType": "struct TokenVesting.VestingSchedule",
          "name": "",
          "type": "tuple"
        }
      ],
      "stateMutability": "view",
      "type": "function"
    },
    {
      "inputs": [],
      "name": "getWithdrawableAmount",
      "outputs": [
        {
          "internalType": "uint256",
          "name": "",
          "type": "uint256"
        }
      ],
      "stateMutability": "view",
      "type": "function"
    },
    {
      "inputs": [
        {
          "internalType": "address",
          "name": "holder",
          "type": "address"
        }
      ],
      "name": "computeNextVestingScheduleIdForHolder",
      "outputs": [
        {
          "internalType": "bytes32",
          "name": "",
          "type": "bytes32"
        }
      ],
      "stateMutability": "view",
      "type": "function"
    },
    {
      "inputs": [
        {
          "internalType": "address",
          "name": "holder",
          "type": "address"
        }
      ],
      "name": "getLastVestingScheduleForHolder",
      "outputs": [
        {
          "components": [
            {
              "internalType": "bool",
              "name": "initialized",
              "type": "bool"
            },
            {
              "internalType": "address",
              "name": "beneficiary",
              "type": "address"
            },
            {
              "internalType": "uint256",
              "name": "cliff",
              "type": "uint256"
            },
            {
              "internalType": "uint256",
              "name": "start",
              "type": "uint256"
            },
            {
              "internalType": "uint256",
              "name": "duration",
              "type": "uint256"
            },
            {
              "internalType": "uint256",
              "name": "slicePeriodSeconds",
              "type": "uint256"
            },
            {
              "internalType": "bool",
              "name": "revocable",
              "type": "bool"
            },
            {
              "internalType": "uint256",
              "name": "amountTotal",
              "type": "uint256"
            },
            {
              "internalType": "uint256",
              "name": "released",
              "type": "uint256"
            },
            {
              "internalType": "bool",
              "name": "revoked",
              "type": "bool"
            }
          ],
          "internalType": "struct TokenVesting.VestingSchedule",
          "name": "",
          "type": "tuple"
        }
      ],
      "stateMutability": "view",
      "type": "function"
    },
    {
      "inputs": [
        {
          "internalType": "address",
          "name": "holder",
          "type": "address"
        },
        {
          "internalType": "uint256",
          "name": "index",
          "type": "uint256"
        }
      ],
      "name": "computeVestingScheduleIdForAddressAndIndex",
      "outputs": [
        {
          "internalType": "bytes32",
          "name": "",
          "type": "bytes32"
        }
      ],
      "stateMutability": "pure",
      "type": "function"
    }
  ],
  "bytecode": "0x60a06040523480156200001157600080fd5b50604051620030643803806200306483398181016040528101906200003791906200029f565b620000576200004b620001a560201b60201c565b620001ad60201b60201c565b60018081905550600073ffffffffffffffffffffffffffffffffffffffff168173ffffffffffffffffffffffffffffffffffffffff1614156200009957600080fd5b8073ffffffffffffffffffffffffffffffffffffffff1660808173ffffffffffffffffffffffffffffffffffffffff1660601b815250508460068190555083600760006101000a81548173ffffffffffffffffffffffffffffffffffffffff021916908373ffffffffffffffffffffffffffffffffffffffff16021790555082600860006101000a81548173ffffffffffffffffffffffffffffffffffffffff021916908373ffffffffffffffffffffffffffffffffffffffff16021790555081600960006101000a81548173ffffffffffffffffffffffffffffffffffffffff021916908373ffffffffffffffffffffffffffffffffffffffff160217905550505050505062000393565b600033905090565b60008060009054906101000a900473ffffffffffffffffffffffffffffffffffffffff169050816000806101000a81548173ffffffffffffffffffffffffffffffffffffffff021916908373ffffffffffffffffffffffffffffffffffffffff1602179055508173ffffffffffffffffffffffffffffffffffffffff168173ffffffffffffffffffffffffffffffffffffffff167f8be0079c531659141344cd1fd0a4f28419497f9722a3daafe3b4186f6b6457e060405160405180910390a35050565b60008151905062000282816200035f565b92915050565b600081519050620002998162000379565b92915050565b600080600080600060a08688031215620002b857600080fd5b6000620002c88882890162000288565b9550506020620002db8882890162000271565b9450506040620002ee8882890162000271565b9350506060620003018882890162000271565b9250506080620003148882890162000271565b9150509295509295909350565b60006200032e8262000335565b9050919050565b600073ffffffffffffffffffffffffffffffffffffffff82169050919050565b6000819050919050565b6200036a8162000321565b81146200037657600080fd5b50565b620003848162000355565b81146200039057600080fd5b50565b60805160601c612c9d620003c7600039600081816104d501528181610c89015281816110e401526113f40152612c9d6000f3fe6080604052600436106101185760003560e01c80638af104da116100a0578063ea1bb3d511610064578063ea1bb3d5146103a7578063f2fde38b146103e4578063f51321d71461040d578063f7c469f01461044a578063f9079b37146104875761011f565b80638af104da146102ae5780638da5cb5b146102eb57806390be10cc146103165780639ef346b414610341578063b75c7dc61461037e5761011f565b806348deb471116100e757806348deb471146101c95780635a7bb69a146101f457806366afd8ef14610231578063715018a61461025a5780637e913dc6146102715761011f565b8063130836171461012157806321df0da71461014c57806327a1567f146101775780632e1a7d4d146101a05761011f565b3661011f57005b005b34801561012d57600080fd5b506101366104c4565b60405161014391906129a9565b60405180910390f35b34801561015857600080fd5b506101616104d1565b60405161016e9190612785565b60405180910390f35b34801561018357600080fd5b5061019e60048036038101906101999190611fc2565b6104f9565b005b3480156101ac57600080fd5b506101c760048036038101906101c29190612102565b610afd565b005b3480156101d557600080fd5b506101de610d46565b6040516101eb91906129a9565b60405180910390f35b34801561020057600080fd5b5061021b60048036038101906102169190611f5d565b610d50565b60405161022891906129a9565b60405180910390f35b34801561023d57600080fd5b50610258600480360381019061025391906120c6565b610d99565b005b34801561026657600080fd5b5061026f6111a1565b005b34801561027d57600080fd5b5061029860048036038101906102939190611f5d565b611229565b6040516102a5919061298d565b60405180910390f35b3480156102ba57600080fd5b506102d560048036038101906102d09190611f86565b61138e565b6040516102e291906127f2565b60405180910390f35b3480156102f757600080fd5b506103006113c1565b60405161030d9190612785565b60405180910390f35b34801561032257600080fd5b5061032b6113ea565b60405161033891906129a9565b60405180910390f35b34801561034d57600080fd5b5061036860048036038101906103639190612074565b6114ae565b604051610375919061298d565b60405180910390f35b34801561038a57600080fd5b506103a560048036038101906103a09190612074565b6115bf565b005b3480156103b357600080fd5b506103ce60048036038101906103c99190612074565b611881565b6040516103db91906129a9565b60405180910390f35b3480156103f057600080fd5b5061040b60048036038101906104069190611f5d565b611a04565b005b34801561041957600080fd5b50610434600480360381019061042f9190611f86565b611afc565b604051610441919061298d565b60405180910390f35b34801561045657600080fd5b50610471600480360381019061046c9190611f5d565b611b1e565b60405161047e91906127f2565b60405180910390f35b34801561049357600080fd5b506104ae60048036038101906104a99190612102565b611b70565b6040516104bb91906127f2565b60405180910390f35b6000600280549050905090565b60007f0000000000000000000000000000000000000000000000000000000000000000905090565b610501611c07565b73ffffffffffffffffffffffffffffffffffffffff1661051f6113c1565b73ffffffffffffffffffffffffffffffffffffffff1614610575576040517f08c379a000000000000000000000000000000000000000000000000000000000815260040161056c9061288d565b60405180910390fd5b85600760009054906101000a900473ffffffffffffffffffffffffffffffffffffffff1673ffffffffffffffffffffffffffffffffffffffff168173ffffffffffffffffffffffffffffffffffffffff16148061061f5750600860009054906101000a900473ffffffffffffffffffffffffffffffffffffffff1673ffffffffffffffffffffffffffffffffffffffff168173ffffffffffffffffffffffffffffffffffffffff16145b806106775750600960009054906101000a900473ffffffffffffffffffffffffffffffffffffffff1673ffffffffffffffffffffffffffffffffffffffff168173ffffffffffffffffffffffffffffffffffffffff16145b61068057600080fd5b813073ffffffffffffffffffffffffffffffffffffffff166390be10cc6040518163ffffffff1660e01b815260040160206040518083038186803b1580156106c757600080fd5b505afa1580156106db573d6000803e3d6000fd5b505050506040513d601f19601f820116820180604052508101906106ff919061212b565b1015610740576040517f08c379a00000000000000000000000000000000000000000000000000000000081526004016107379061294d565b60405180910390fd5b60008511610783576040517f08c379a000000000000000000000000000000000000000000000000000000000815260040161077a906128ed565b60405180910390fd5b600082116107c6576040517f08c379a00000000000000000000000000000000000000000000000000000000081526004016107bd906128ad565b60405180910390fd5b600184101561080a576040517f08c379a00000000000000000000000000000000000000000000000000000000081526004016108019061282d565b60405180910390fd5b60003073ffffffffffffffffffffffffffffffffffffffff1663f7c469f0896040518263ffffffff1660e01b81526004016108459190612785565b60206040518083038186803b15801561085d57600080fd5b505afa158015610871573d6000803e3d6000fd5b505050506040513d601f19601f82011682018060405250810190610895919061209d565b905060006108ae88600654611c0f90919063ffffffff16565b90506040518061014001604052806001151581526020018a73ffffffffffffffffffffffffffffffffffffffff1681526020018281526020016006548152602001888152602001878152602001861515815260200185815260200160008152602001600015158152506003600084815260200190815260200160002060008201518160000160006101000a81548160ff02191690831515021790555060208201518160000160016101000a81548173ffffffffffffffffffffffffffffffffffffffff021916908373ffffffffffffffffffffffffffffffffffffffff16021790555060408201518160010155606082015181600201556080820151816003015560a0820151816004015560c08201518160050160006101000a81548160ff02191690831515021790555060e0820151816006015561010082015181600701556101208201518160080160006101000a81548160ff021916908315150217905550905050610a2784600454611c0f90919063ffffffff16565b60048190555060028290806001815401808255809150506001900390600052602060002001600090919091909150556000600560008b73ffffffffffffffffffffffffffffffffffffffff1673ffffffffffffffffffffffffffffffffffffffff168152602001908152602001600020549050610aae600182611c0f90919063ffffffff16565b600560008c73ffffffffffffffffffffffffffffffffffffffff1673ffffffffffffffffffffffffffffffffffffffff1681526020019081526020016000208190555050505050505050505050565b60026001541415610b43576040517f08c379a0000000000000000000000000000000000000000000000000000000008152600401610b3a9061296d565b60405180910390fd5b6002600181905550610b53611c07565b73ffffffffffffffffffffffffffffffffffffffff16610b716113c1565b73ffffffffffffffffffffffffffffffffffffffff1614610bc7576040517f08c379a0000000000000000000000000000000000000000000000000000000008152600401610bbe9061288d565b60405180910390fd5b803073ffffffffffffffffffffffffffffffffffffffff166390be10cc6040518163ffffffff1660e01b815260040160206040518083038186803b158015610c0e57600080fd5b505afa158015610c22573d6000803e3d6000fd5b505050506040513d601f19601f82011682018060405250810190610c46919061212b565b1015610c87576040517f08c379a0000000000000000000000000000000000000000000000000000000008152600401610c7e9061292d565b60405180910390fd5b7f000000000000000000000000000000000000000000000000000000000000000073ffffffffffffffffffffffffffffffffffffffff1663a9059cbb610ccb6113c1565b836040518363ffffffff1660e01b8152600401610ce99291906127c9565b602060405180830381600087803b158015610d0357600080fd5b505af1158015610d17573d6000803e3d6000fd5b505050506040513d601f19601f82011682018060405250810190610d3b919061204b565b506001808190555050565b6000600454905090565b6000600560008373ffffffffffffffffffffffffffffffffffffffff1673ffffffffffffffffffffffffffffffffffffffff168152602001908152602001600020549050919050565b60026001541415610ddf576040517f08c379a0000000000000000000000000000000000000000000000000000000008152600401610dd69061296d565b60405180910390fd5b600260018190555081600115156003600083815260200190815260200160002060000160009054906101000a900460ff16151514610e1c57600080fd5b600015156003600083815260200190815260200160002060080160009054906101000a900460ff16151514610e5057600080fd5b600060036000858152602001908152602001600020905060008160000160019054906101000a900473ffffffffffffffffffffffffffffffffffffffff1673ffffffffffffffffffffffffffffffffffffffff163373ffffffffffffffffffffffffffffffffffffffff161490506000610ec86113c1565b73ffffffffffffffffffffffffffffffffffffffff163373ffffffffffffffffffffffffffffffffffffffff161490508180610f015750805b610f40576040517f08c379a0000000000000000000000000000000000000000000000000000000008152600401610f379061290d565b60405180910390fd5b600061103a84604051806101400160405290816000820160009054906101000a900460ff161515151581526020016000820160019054906101000a900473ffffffffffffffffffffffffffffffffffffffff1673ffffffffffffffffffffffffffffffffffffffff1673ffffffffffffffffffffffffffffffffffffffff168152602001600182015481526020016002820154815260200160038201548152602001600482015481526020016005820160009054906101000a900460ff1615151515815260200160068201548152602001600782015481526020016008820160009054906101000a900460ff161515151581525050611c25565b90508581101561107f576040517f08c379a00000000000000000000000000000000000000000000000000000000081526004016110769061284d565b60405180910390fd5b611096868560070154611c0f90919063ffffffff16565b846007018190555060008460000160019054906101000a900473ffffffffffffffffffffffffffffffffffffffff1690506110dc87600454611d4d90919063ffffffff16565b6004819055507f000000000000000000000000000000000000000000000000000000000000000073ffffffffffffffffffffffffffffffffffffffff1663a9059cbb82896040518363ffffffff1660e01b815260040161113d9291906127a0565b602060405180830381600087803b15801561115757600080fd5b505af115801561116b573d6000803e3d6000fd5b505050506040513d601f19601f8201168201806040525081019061118f919061204b565b50505050505050600180819055505050565b6111a9611c07565b73ffffffffffffffffffffffffffffffffffffffff166111c76113c1565b73ffffffffffffffffffffffffffffffffffffffff161461121d576040517f08c379a00000000000000000000000000000000000000000000000000000000081526004016112149061288d565b60405180910390fd5b6112276000611d63565b565b611231611e5b565b6003600061128a846001600560008873ffffffffffffffffffffffffffffffffffffffff1673ffffffffffffffffffffffffffffffffffffffff168152602001908152602001600020546112859190612ab6565b61138e565b8152602001908152602001600020604051806101400160405290816000820160009054906101000a900460ff161515151581526020016000820160019054906101000a900473ffffffffffffffffffffffffffffffffffffffff1673ffffffffffffffffffffffffffffffffffffffff1673ffffffffffffffffffffffffffffffffffffffff168152602001600182015481526020016002820154815260200160038201548152602001600482015481526020016005820160009054906101000a900460ff1615151515815260200160068201548152602001600782015481526020016008820160009054906101000a900460ff1615151515815250509050919050565b600082826040516020016113a3929190612759565b60405160208183030381529060405280519060200120905092915050565b60008060009054906101000a900473ffffffffffffffffffffffffffffffffffffffff16905090565b60006114a96004547f000000000000000000000000000000000000000000000000000000000000000073ffffffffffffffffffffffffffffffffffffffff166370a08231306040518263ffffffff1660e01b815260040161144b9190612785565b60206040518083038186803b15801561146357600080fd5b505afa158015611477573d6000803e3d6000fd5b505050506040513d601f19601f8201168201806040525081019061149b919061212b565b611d4d90919063ffffffff16565b905090565b6114b6611e5b565b60036000838152602001908152602001600020604051806101400160405290816000820160009054906101000a900460ff161515151581526020016000820160019054906101000a900473ffffffffffffffffffffffffffffffffffffffff1673ffffffffffffffffffffffffffffffffffffffff1673ffffffffffffffffffffffffffffffffffffffff168152602001600182015481526020016002820154815260200160038201548152602001600482015481526020016005820160009054906101000a900460ff1615151515815260200160068201548152602001600782015481526020016008820160009054906101000a900460ff1615151515815250509050919050565b6115c7611c07565b73ffffffffffffffffffffffffffffffffffffffff166115e56113c1565b73ffffffffffffffffffffffffffffffffffffffff161461163b576040517f08c379a00000000000000000000000000000000000000000000000000000000081526004016116329061288d565b60405180910390fd5b80600115156003600083815260200190815260200160002060000160009054906101000a900460ff1615151461167057600080fd5b600015156003600083815260200190815260200160002060080160009054906101000a900460ff161515146116a457600080fd5b6000600360008481526020019081526020016000209050600115158160050160009054906101000a900460ff16151514611713576040517f08c379a000000000000000000000000000000000000000000000000000000000815260040161170a9061286d565b60405180910390fd5b600061180d82604051806101400160405290816000820160009054906101000a900460ff161515151581526020016000820160019054906101000a900473ffffffffffffffffffffffffffffffffffffffff1673ffffffffffffffffffffffffffffffffffffffff1673ffffffffffffffffffffffffffffffffffffffff168152602001600182015481526020016002820154815260200160038201548152602001600482015481526020016005820160009054906101000a900460ff1615151515815260200160068201548152602001600782015481526020016008820160009054906101000a900460ff161515151581525050611c25565b90506000811115611823576118228482610d99565b5b600061184083600701548460060154611d4d90919063ffffffff16565b905061185781600454611d4d90919063ffffffff16565b60048190555060018360080160006101000a81548160ff0219169083151502179055505050505050565b600081600115156003600083815260200190815260200160002060000160009054906101000a900460ff161515146118b857600080fd5b600015156003600083815260200190815260200160002060080160009054906101000a900460ff161515146118ec57600080fd5b60006003600085815260200190815260200160002090506119fb81604051806101400160405290816000820160009054906101000a900460ff161515151581526020016000820160019054906101000a900473ffffffffffffffffffffffffffffffffffffffff1673ffffffffffffffffffffffffffffffffffffffff1673ffffffffffffffffffffffffffffffffffffffff168152602001600182015481526020016002820154815260200160038201548152602001600482015481526020016005820160009054906101000a900460ff1615151515815260200160068201548152602001600782015481526020016008820160009054906101000a900460ff161515151581525050611c25565b92505050919050565b611a0c611c07565b73ffffffffffffffffffffffffffffffffffffffff16611a2a6113c1565b73ffffffffffffffffffffffffffffffffffffffff1614611a80576040517f08c379a0000000000000000000000000000000000000000000000000000000008152600401611a779061288d565b60405180910390fd5b600073ffffffffffffffffffffffffffffffffffffffff168173ffffffffffffffffffffffffffffffffffffffff161415611af0576040517f08c379a0000000000000000000000000000000000000000000000000000000008152600401611ae79061280d565b60405180910390fd5b611af981611d63565b50565b611b04611e5b565b611b16611b11848461138e565b6114ae565b905092915050565b6000611b6982600560008573ffffffffffffffffffffffffffffffffffffffff1673ffffffffffffffffffffffffffffffffffffffff1681526020019081526020016000205461138e565b9050919050565b6000611b7a6104c4565b8210611bbb576040517f08c379a0000000000000000000000000000000000000000000000000000000008152600401611bb2906128cd565b60405180910390fd5b60028281548110611bf5577f4e487b7100000000000000000000000000000000000000000000000000000000600052603260045260246000fd5b90600052602060002001549050919050565b600033905090565b60008183611c1d91906129d5565b905092915050565b600080611c30611e27565b90508260400151811080611c4d5750600115158361012001511515145b15611c5c576000915050611d48565b611c7783608001518460600151611c0f90919063ffffffff16565b8110611ca157611c998361010001518460e00151611d4d90919063ffffffff16565b915050611d48565b6000611cba846060015183611d4d90919063ffffffff16565b905060008460a0015190506000611cda8284611e2f90919063ffffffff16565b90506000611cf18383611e4590919063ffffffff16565b90506000611d228860800151611d14848b60e00151611e4590919063ffffffff16565b611e2f90919063ffffffff16565b9050611d3c88610100015182611d4d90919063ffffffff16565b90508096505050505050505b919050565b60008183611d5b9190612ab6565b905092915050565b60008060009054906101000a900473ffffffffffffffffffffffffffffffffffffffff169050816000806101000a81548173ffffffffffffffffffffffffffffffffffffffff021916908373ffffffffffffffffffffffffffffffffffffffff1602179055508173ffffffffffffffffffffffffffffffffffffffff168173ffffffffffffffffffffffffffffffffffffffff167f8be0079c531659141344cd1fd0a4f28419497f9722a3daafe3b4186f6b6457e060405160405180910390a35050565b600042905090565b60008183611e3d9190612a2b565b905092915050565b60008183611e539190612a5c565b905092915050565b604051806101400160405280600015158152602001600073ffffffffffffffffffffffffffffffffffffffff1681526020016000815260200160008152602001600081526020016000815260200160001515815260200160008152602001600081526020016000151581525090565b600081359050611ed981612c0b565b92915050565b600081359050611eee81612c22565b92915050565b600081519050611f0381612c22565b92915050565b600081359050611f1881612c39565b92915050565b600081519050611f2d81612c39565b92915050565b600081359050611f4281612c50565b92915050565b600081519050611f5781612c50565b92915050565b600060208284031215611f6f57600080fd5b6000611f7d84828501611eca565b91505092915050565b60008060408385031215611f9957600080fd5b6000611fa785828601611eca565b9250506020611fb885828601611f33565b9150509250929050565b60008060008060008060c08789031215611fdb57600080fd5b6000611fe989828a01611eca565b9650506020611ffa89828a01611f33565b955050604061200b89828a01611f33565b945050606061201c89828a01611f33565b935050608061202d89828a01611edf565b92505060a061203e89828a01611f33565b9150509295509295509295565b60006020828403121561205d57600080fd5b600061206b84828501611ef4565b91505092915050565b60006020828403121561208657600080fd5b600061209484828501611f09565b91505092915050565b6000602082840312156120af57600080fd5b60006120bd84828501611f1e565b91505092915050565b600080604083850312156120d957600080fd5b60006120e785828601611f09565b92505060206120f885828601611f33565b9150509250929050565b60006020828403121561211457600080fd5b600061212284828501611f33565b91505092915050565b60006020828403121561213d57600080fd5b600061214b84828501611f48565b91505092915050565b61215d81612b3c565b82525050565b61216c81612aea565b82525050565b61217b81612aea565b82525050565b61219261218d82612aea565b612b72565b82525050565b6121a181612afc565b82525050565b6121b081612b08565b82525050565b60006121c36026836129c4565b91507f4f776e61626c653a206e6577206f776e657220697320746865207a65726f206160008301527f64647265737300000000000000000000000000000000000000000000000000006020830152604082019050919050565b6000612229602d836129c4565b91507f546f6b656e56657374696e673a20736c696365506572696f645365636f6e647360008301527f206d757374206265203e3d2031000000000000000000000000000000000000006020830152604082019050919050565b600061228f603d836129c4565b91507f546f6b656e56657374696e673a2063616e6e6f742072656c6561736520746f6b60008301527f656e732c206e6f7420656e6f7567682076657374656420746f6b656e730000006020830152604082019050919050565b60006122f56026836129c4565b91507f546f6b656e56657374696e673a2076657374696e67206973206e6f742072657660008301527f6f6361626c6500000000000000000000000000000000000000000000000000006020830152604082019050919050565b600061235b6020836129c4565b91507f4f776e61626c653a2063616c6c6572206973206e6f7420746865206f776e65726000830152602082019050919050565b600061239b6020836129c4565b91507f546f6b656e56657374696e673a20616d6f756e74206d757374206265203e20306000830152602082019050919050565b60006123db6021836129c4565b91507f546f6b656e56657374696e673a20696e646578206f7574206f6620626f756e6460008301527f73000000000000000000000000000000000000000000000000000000000000006020830152604082019050919050565b60006124416022836129c4565b91507f546f6b656e56657374696e673a206475726174696f6e206d757374206265203e60008301527f20300000000000000000000000000000000000000000000000000000000000006020830152604082019050919050565b60006124a76042836129c4565b91507f546f6b656e56657374696e673a206f6e6c792062656e6566696369617279206160008301527f6e64206f776e65722063616e2072656c656173652076657374656420746f6b6560208301527f6e730000000000000000000000000000000000000000000000000000000000006040830152606082019050919050565b6000612533602b836129c4565b91507f546f6b656e56657374696e673a206e6f7420656e6f756768207769746864726160008301527f7761626c652066756e64730000000000000000000000000000000000000000006020830152604082019050919050565b6000612599604a836129c4565b91507f546f6b656e56657374696e673a2063616e6e6f7420637265617465207665737460008301527f696e67207363686564756c652062656361757365206e6f74207375666669636960208301527f656e7420746f6b656e73000000000000000000000000000000000000000000006040830152606082019050919050565b6000612625601f836129c4565b91507f5265656e7472616e637947756172643a207265656e7472616e742063616c6c006000830152602082019050919050565b6101408201600082015161266f6000850182612198565b5060208201516126826020850182612163565b5060408201516126956040850182612724565b5060608201516126a86060850182612724565b5060808201516126bb6080850182612724565b5060a08201516126ce60a0850182612724565b5060c08201516126e160c0850182612198565b5060e08201516126f460e0850182612724565b50610100820151612709610100850182612724565b5061012082015161271e610120850182612198565b50505050565b61272d81612b32565b82525050565b61273c81612b32565b82525050565b61275361274e82612b32565b612b96565b82525050565b60006127658285612181565b6014820191506127758284612742565b6020820191508190509392505050565b600060208201905061279a6000830184612172565b92915050565b60006040820190506127b56000830185612154565b6127c26020830184612733565b9392505050565b60006040820190506127de6000830185612172565b6127eb6020830184612733565b9392505050565b600060208201905061280760008301846121a7565b92915050565b60006020820190508181036000830152612826816121b6565b9050919050565b600060208201905081810360008301526128468161221c565b9050919050565b6000602082019050818103600083015261286681612282565b9050919050565b60006020820190508181036000830152612886816122e8565b9050919050565b600060208201905081810360008301526128a68161234e565b9050919050565b600060208201905081810360008301526128c68161238e565b9050919050565b600060208201905081810360008301526128e6816123ce565b9050919050565b6000602082019050818103600083015261290681612434565b9050919050565b600060208201905081810360008301526129268161249a565b9050919050565b6000602082019050818103600083015261294681612526565b9050919050565b600060208201905081810360008301526129668161258c565b9050919050565b6000602082019050818103600083015261298681612618565b9050919050565b6000610140820190506129a36000830184612658565b92915050565b60006020820190506129be6000830184612733565b92915050565b600082825260208201905092915050565b60006129e082612b32565b91506129eb83612b32565b9250827fffffffffffffffffffffffffffffffffffffffffffffffffffffffffffffffff03821115612a2057612a1f612ba0565b5b828201905092915050565b6000612a3682612b32565b9150612a4183612b32565b925082612a5157612a50612bcf565b5b828204905092915050565b6000612a6782612b32565b9150612a7283612b32565b9250817fffffffffffffffffffffffffffffffffffffffffffffffffffffffffffffffff0483118215151615612aab57612aaa612ba0565b5b828202905092915050565b6000612ac182612b32565b9150612acc83612b32565b925082821015612adf57612ade612ba0565b5b828203905092915050565b6000612af582612b12565b9050919050565b60008115159050919050565b6000819050919050565b600073ffffffffffffffffffffffffffffffffffffffff82169050919050565b6000819050919050565b6000612b4782612b4e565b9050919050565b6000612b5982612b60565b9050919050565b6000612b6b82612b12565b9050919050565b6000612b7d82612b84565b9050919050565b6000612b8f82612bfe565b9050919050565b6000819050919050565b7f4e487b7100000000000000000000000000000000000000000000000000000000600052601160045260246000fd5b7f4e487b7100000000000000000000000000000000000000000000000000000000600052601260045260246000fd5b60008160601b9050919050565b612c1481612aea565b8114612c1f57600080fd5b50565b612c2b81612afc565b8114612c3657600080fd5b50565b612c4281612b08565b8114612c4d57600080fd5b50565b612c5981612b32565b8114612c6457600080fd5b5056fea2646970667358221220c09355fa8769e0174f7320ad0763162d3eae2908cc78ea1733139e3ecbe1af8f64736f6c63430008000033",
  "immutableReferences": {
    "1006": [
      {
        "length": 32,
        "start": 1237
      },
      {
        "length": 32,
        "start": 3209
      },
      {
        "length": 32,
        "start": 4324
      },
      {
        "length": 32,
        "start": 5108
      }
    ]
  },
  "source": "// SPDX-License-Identifier: GPL-3.0\r\npragma solidity ^0.8.0;\r\n\r\nimport \"./IERC223.sol\";\r\nimport \"@openzeppelin/contracts/security/ReentrancyGuard.sol\";\r\nimport \"@openzeppelin/contracts/access/Ownable.sol\";\r\nimport \"@openzeppelin/contracts/utils/math/Math.sol\";\r\nimport \"@openzeppelin/contracts/utils/math/SafeMath.sol\";\r\n\r\n/**\r\n * @title TokenVesting\r\n */\r\ncontract TokenVesting is Ownable, ReentrancyGuard{\r\n    using SafeMath for uint256;\r\n    // using SafeERC20 for IERC20;\r\n    struct VestingSchedule{\r\n        bool initialized;\r\n        // beneficiary of tokens after they are released\r\n        address  beneficiary;\r\n        // cliff period in seconds\r\n        uint256  cliff;\r\n        // start time of the vesting period\r\n        uint256  start;\r\n        // duration of the vesting period in seconds\r\n        uint256  duration;\r\n        // duration of a slice period for the vesting in seconds\r\n        uint256 slicePeriodSeconds;\r\n        // whether or not the vesting is revocable\r\n        bool  revocable;\r\n        // total amount of tokens to be released at the end of the vesting\r\n        uint256 amountTotal;\r\n        // amount of tokens released\r\n        uint256  released;\r\n        // whether or not the vesting has been revoked\r\n        bool revoked;\r\n    }\r\n\r\n    // address of the ERC20 token\r\n    IERC223 immutable private _token;\r\n\r\n    bytes32[] private vestingSchedulesIds;\r\n    mapping(bytes32 => VestingSchedule) private vestingSchedules;\r\n    uint256 private vestingSchedulesTotalAmount;\r\n    mapping(address => uint256) private holdersVestingCount;\r\n    uint256 private vestingStartTime;\r\n    address private founderWallet;\r\n    address private advisorAddress;\r\n    address private teamAddress;\r\n\r\n    event Released(uint256 amount);\r\n    event Revoked();\r\n\r\n    /**\r\n    * @dev Reverts if no vesting schedule matches the passed identifier.\r\n    */\r\n    modifier onlyIfVestingScheduleExists(bytes32 vestingScheduleId) {\r\n        require(vestingSchedules[vestingScheduleId].initialized == true);\r\n        _;\r\n    }\r\n\r\n    /**\r\n    * @dev Reverts if the vesting schedule does not exist or has been revoked.\r\n    */\r\n    modifier onlyIfVestingScheduleNotRevoked(bytes32 vestingScheduleId) {\r\n        require(vestingSchedules[vestingScheduleId].initialized == true);\r\n        require(vestingSchedules[vestingScheduleId].revoked == false);\r\n        _;\r\n    }\r\n\r\n      modifier onlyBeneficiary(address beneficiary) {\r\n        require(beneficiary == founderWallet ||beneficiary == advisorAddress || beneficiary == teamAddress );\r\n        _;\r\n    }\r\n\r\n    /**\r\n     * @dev Creates a vesting contract.\r\n     * @param _tokenContractAddress address of the ERC20 token contract\r\n     */\r\n\r\n    constructor(uint256 _vestingStartTime,address _founderWallet, address _advisorAddress,address _teamAddress, address _tokenContractAddress) {\r\n        require(_tokenContractAddress != address(0x0));\r\n        _token = IERC223(_tokenContractAddress);\r\n        vestingStartTime = _vestingStartTime;\r\n        founderWallet = _founderWallet;\r\n        advisorAddress = _advisorAddress;\r\n        teamAddress = _teamAddress;\r\n    }\r\n\r\n    receive() external payable {}\r\n\r\n    fallback() external payable {}\r\n\r\n    /**\r\n    * @dev Returns the number of vesting schedules associated to a beneficiary.\r\n    * @return the number of vesting schedules\r\n    */\r\n    function getVestingSchedulesCountByBeneficiary(address _beneficiary)\r\n    external\r\n    view\r\n    returns(uint256){\r\n        return holdersVestingCount[_beneficiary];\r\n    }\r\n\r\n    /**\r\n    * @dev Returns the vesting schedule id at the given index.\r\n    * @return the vesting id\r\n    */\r\n    function getVestingIdAtIndex(uint256 index)\r\n    external\r\n    view\r\n    returns(bytes32){\r\n        require(index < getVestingSchedulesCount(), \"TokenVesting: index out of bounds\");\r\n        return vestingSchedulesIds[index];\r\n    }\r\n\r\n    /**\r\n    * @notice Returns the vesting schedule information for a given holder and index.\r\n    * @return the vesting schedule structure information\r\n    */\r\n    function getVestingScheduleByAddressAndIndex(address holder, uint256 index)\r\n    external\r\n    view\r\n    returns(VestingSchedule memory){\r\n        return getVestingSchedule(computeVestingScheduleIdForAddressAndIndex(holder, index));\r\n    }\r\n\r\n\r\n    /**\r\n    * @notice Returns the total amount of vesting schedules.\r\n    * @return the total amount of vesting schedules\r\n    */\r\n    function getVestingSchedulesTotalAmount()\r\n    external\r\n    view\r\n    returns(uint256){\r\n        return vestingSchedulesTotalAmount;\r\n    }\r\n\r\n    /**\r\n    * @dev Returns the address of the ERC20 token managed by the vesting contract.\r\n    */\r\n    function getToken()\r\n    external\r\n    view\r\n    returns(address){\r\n        return address(_token);\r\n    }\r\n\r\n    /**\r\n    * @notice Creates a new vesting schedule for a beneficiary.\r\n    * @param _beneficiary address of the beneficiary to whom vested tokens are transferred\r\n    * @param _cliff duration in seconds of the cliff in which tokens will begin to vest\r\n    * @param _duration duration in seconds of the period in which the tokens will vest\r\n    * @param _slicePeriodSeconds duration of a slice period for the vesting in seconds\r\n    * @param _revocable whether the vesting is revocable or not\r\n    * @param _amount total amount of tokens to be released at the end of the vesting\r\n    */\r\n    function createVestingSchedule(\r\n        address _beneficiary,\r\n        uint256 _cliff,\r\n        uint256 _duration,\r\n        uint256 _slicePeriodSeconds,\r\n        bool _revocable,\r\n        uint256 _amount\r\n    )\r\n        public\r\n        onlyOwner \r\n        onlyBeneficiary(_beneficiary){\r\n        require(\r\n            this.getWithdrawableAmount() >= _amount,\r\n            \"TokenVesting: cannot create vesting schedule because not sufficient tokens\"\r\n        );\r\n        require(_duration > 0, \"TokenVesting: duration must be > 0\");\r\n        require(_amount > 0, \"TokenVesting: amount must be > 0\");\r\n        require(_slicePeriodSeconds >= 1, \"TokenVesting: slicePeriodSeconds must be >= 1\");\r\n        bytes32 vestingScheduleId = this.computeNextVestingScheduleIdForHolder(_beneficiary);\r\n        uint256 cliff = vestingStartTime.add(_cliff);\r\n        vestingSchedules[vestingScheduleId] = VestingSchedule(\r\n            true,\r\n            _beneficiary,\r\n            cliff,\r\n            vestingStartTime,\r\n            _duration,\r\n            _slicePeriodSeconds,\r\n            _revocable,\r\n            _amount,\r\n            0,\r\n            false\r\n        );\r\n        vestingSchedulesTotalAmount = vestingSchedulesTotalAmount.add(_amount);\r\n        vestingSchedulesIds.push(vestingScheduleId);\r\n        uint256 currentVestingCount = holdersVestingCount[_beneficiary];\r\n        holdersVestingCount[_beneficiary] = currentVestingCount.add(1);\r\n    }\r\n\r\n    /**\r\n    * @notice Revokes the vesting schedule for given identifier.\r\n    * @param vestingScheduleId the vesting schedule identifier\r\n    */\r\n    function revoke(bytes32 vestingScheduleId)\r\n        public\r\n        onlyOwner\r\n        onlyIfVestingScheduleNotRevoked(vestingScheduleId){\r\n        VestingSchedule storage vestingSchedule = vestingSchedules[vestingScheduleId];\r\n        require(vestingSchedule.revocable == true, \"TokenVesting: vesting is not revocable\");\r\n        uint256 vestedAmount = _computeReleasableAmount(vestingSchedule);\r\n        if(vestedAmount > 0){\r\n            release(vestingScheduleId, vestedAmount);\r\n        }\r\n        uint256 unreleased = vestingSchedule.amountTotal.sub(vestingSchedule.released);\r\n        vestingSchedulesTotalAmount = vestingSchedulesTotalAmount.sub(unreleased);\r\n        vestingSchedule.revoked = true;\r\n    }\r\n\r\n    /**\r\n    * @notice Withdraw the specified amount if possible.\r\n    * @param amount the amount to withdraw\r\n    */\r\n    function withdraw(uint256 amount)\r\n        public\r\n        nonReentrant\r\n        onlyOwner{\r\n        require(this.getWithdrawableAmount() >= amount, \"TokenVesting: not enough withdrawable funds\");\r\n        _token.transfer(owner(), amount);\r\n    }\r\n\r\n    /**\r\n    * @notice Release vested amount of tokens.\r\n    * @param vestingScheduleId the vesting schedule identifier\r\n    * @param amount the amount to release\r\n    */\r\n    function release(\r\n        bytes32 vestingScheduleId,\r\n        uint256 amount\r\n    )\r\n        public\r\n        nonReentrant\r\n        onlyIfVestingScheduleNotRevoked(vestingScheduleId){\r\n        VestingSchedule storage vestingSchedule = vestingSchedules[vestingScheduleId];\r\n        bool isBeneficiary = msg.sender == vestingSchedule.beneficiary;\r\n        bool isOwner = msg.sender == owner();\r\n        require(\r\n            isBeneficiary || isOwner,\r\n            \"TokenVesting: only beneficiary and owner can release vested tokens\"\r\n        );\r\n        uint256 vestedAmount = _computeReleasableAmount(vestingSchedule);\r\n        require(vestedAmount >= amount, \"TokenVesting: cannot release tokens, not enough vested tokens\");\r\n        vestingSchedule.released = vestingSchedule.released.add(amount);\r\n        address payable beneficiaryPayable = payable(vestingSchedule.beneficiary);\r\n        vestingSchedulesTotalAmount = vestingSchedulesTotalAmount.sub(amount);\r\n        _token.transfer(beneficiaryPayable, amount);\r\n    }\r\n\r\n    /**\r\n    * @dev Returns the number of vesting schedules managed by this contract.\r\n    * @return the number of vesting schedules\r\n    */\r\n    function getVestingSchedulesCount()\r\n        public\r\n        view\r\n        returns(uint256){\r\n        return vestingSchedulesIds.length;\r\n    }\r\n\r\n    /**\r\n    * @notice Computes the vested amount of tokens for the given vesting schedule identifier.\r\n    * @return the vested amount\r\n    */\r\n    function computeReleasableAmount(bytes32 vestingScheduleId)\r\n        public\r\n        onlyIfVestingScheduleNotRevoked(vestingScheduleId)\r\n        view\r\n        returns(uint256){\r\n        VestingSchedule storage vestingSchedule = vestingSchedules[vestingScheduleId];\r\n        return _computeReleasableAmount(vestingSchedule);\r\n    }\r\n\r\n    /**\r\n    * @notice Returns the vesting schedule information for a given identifier.\r\n    * @return the vesting schedule structure information\r\n    */\r\n    function getVestingSchedule(bytes32 vestingScheduleId)\r\n        public\r\n        view\r\n        returns(VestingSchedule memory){\r\n        return vestingSchedules[vestingScheduleId];\r\n    }\r\n\r\n    /**\r\n    * @dev Returns the amount of tokens that can be withdrawn by the owner.\r\n    * @return the amount of tokens\r\n    */\r\n    function getWithdrawableAmount()\r\n        public\r\n        view\r\n        returns(uint256){\r\n        return _token.balanceOf(address(this)).sub(vestingSchedulesTotalAmount);\r\n    }\r\n\r\n    /**\r\n    * @dev Computes the next vesting schedule identifier for a given holder address.\r\n    */\r\n    function computeNextVestingScheduleIdForHolder(address holder)\r\n        public\r\n        view\r\n        returns(bytes32){\r\n        return computeVestingScheduleIdForAddressAndIndex(holder, holdersVestingCount[holder]);\r\n    }\r\n\r\n    /**\r\n    * @dev Returns the last vesting schedule for a given holder address.\r\n    */\r\n    function getLastVestingScheduleForHolder(address holder)\r\n        public\r\n        view\r\n        returns(VestingSchedule memory){\r\n        return vestingSchedules[computeVestingScheduleIdForAddressAndIndex(holder, holdersVestingCount[holder] - 1)];\r\n    }\r\n\r\n    /**\r\n    * @dev Computes the vesting schedule identifier for an address and an index.\r\n    */\r\n    function computeVestingScheduleIdForAddressAndIndex(address holder, uint256 index)\r\n        public\r\n        pure\r\n        returns(bytes32){\r\n        return keccak256(abi.encodePacked(holder, index));\r\n    }\r\n\r\n    /**\r\n    * @dev Computes the releasable amount of tokens for a vesting schedule.\r\n    * @return the amount of releasable tokens\r\n    */\r\n    function _computeReleasableAmount(VestingSchedule memory vestingSchedule)\r\n    internal\r\n    view\r\n    returns(uint256){\r\n        uint256 currentTime = getCurrentTime();\r\n        if ((currentTime < vestingSchedule.cliff) || vestingSchedule.revoked == true) {\r\n            return 0;\r\n        } else if (currentTime >= vestingSchedule.start.add(vestingSchedule.duration)) {\r\n            return vestingSchedule.amountTotal.sub(vestingSchedule.released);\r\n        } else {\r\n            uint256 timeFromStart = currentTime.sub(vestingSchedule.start);\r\n            uint secondsPerSlice = vestingSchedule.slicePeriodSeconds;\r\n            uint256 vestedSlicePeriods = timeFromStart.div(secondsPerSlice);\r\n            uint256 vestedSeconds = vestedSlicePeriods.mul(secondsPerSlice);\r\n            uint256 vestedAmount = vestingSchedule.amountTotal.mul(vestedSeconds).div(vestingSchedule.duration);\r\n            vestedAmount = vestedAmount.sub(vestingSchedule.released);\r\n            return vestedAmount;\r\n        }\r\n    }\r\n\r\n    function getCurrentTime()\r\n        internal\r\n        virtual\r\n        view\r\n        returns(uint256){\r\n        return block.timestamp;\r\n    }\r\n\r\n}",
  "sourcePath": "C:\\Users\\buvan\\OneDrive\\Desktop\\tt\\contracts\\Vesting.sol",
  "compiler": {
    "name": "solc",
    "version": "0.8.0+commit.c7dfd78e.Emscripten.clang"
  },
  "schemaVersion": "3.4.4",
  "updatedAt": "2022-01-20T13:15:14.618Z",
  "devdoc": {
    "kind": "dev",
    "methods": {
      "computeNextVestingScheduleIdForHolder(address)": {
        "details": "Computes the next vesting schedule identifier for a given holder address."
      },
      "computeReleasableAmount(bytes32)": {
        "returns": {
          "_0": "the vested amount"
        }
      },
      "computeVestingScheduleIdForAddressAndIndex(address,uint256)": {
        "details": "Computes the vesting schedule identifier for an address and an index."
      },
      "constructor": {
        "details": "Creates a vesting contract.",
        "params": {
          "_tokenContractAddress": "address of the ERC20 token contract"
        }
      },
      "createVestingSchedule(address,uint256,uint256,uint256,bool,uint256)": {
        "params": {
          "_amount": "total amount of tokens to be released at the end of the vesting",
          "_beneficiary": "address of the beneficiary to whom vested tokens are transferred",
          "_cliff": "duration in seconds of the cliff in which tokens will begin to vest",
          "_duration": "duration in seconds of the period in which the tokens will vest",
          "_revocable": "whether the vesting is revocable or not",
          "_slicePeriodSeconds": "duration of a slice period for the vesting in seconds"
        }
      },
      "getLastVestingScheduleForHolder(address)": {
        "details": "Returns the last vesting schedule for a given holder address."
      },
      "getToken()": {
        "details": "Returns the address of the ERC20 token managed by the vesting contract."
      },
      "getVestingIdAtIndex(uint256)": {
        "details": "Returns the vesting schedule id at the given index.",
        "returns": {
          "_0": "the vesting id"
        }
      },
      "getVestingSchedule(bytes32)": {
        "returns": {
          "_0": "the vesting schedule structure information"
        }
      },
      "getVestingScheduleByAddressAndIndex(address,uint256)": {
        "returns": {
          "_0": "the vesting schedule structure information"
        }
      },
      "getVestingSchedulesCount()": {
        "details": "Returns the number of vesting schedules managed by this contract.",
        "returns": {
          "_0": "the number of vesting schedules"
        }
      },
      "getVestingSchedulesCountByBeneficiary(address)": {
        "details": "Returns the number of vesting schedules associated to a beneficiary.",
        "returns": {
          "_0": "the number of vesting schedules"
        }
      },
      "getVestingSchedulesTotalAmount()": {
        "returns": {
          "_0": "the total amount of vesting schedules"
        }
      },
      "getWithdrawableAmount()": {
        "details": "Returns the amount of tokens that can be withdrawn by the owner.",
        "returns": {
          "_0": "the amount of tokens"
        }
      },
      "owner()": {
        "details": "Returns the address of the current owner."
      },
      "release(bytes32,uint256)": {
        "params": {
          "amount": "the amount to release",
          "vestingScheduleId": "the vesting schedule identifier"
        }
      },
      "renounceOwnership()": {
        "details": "Leaves the contract without owner. It will not be possible to call `onlyOwner` functions anymore. Can only be called by the current owner. NOTE: Renouncing ownership will leave the contract without an owner, thereby removing any functionality that is only available to the owner."
      },
      "revoke(bytes32)": {
        "params": {
          "vestingScheduleId": "the vesting schedule identifier"
        }
      },
      "transferOwnership(address)": {
        "details": "Transfers ownership of the contract to a new account (`newOwner`). Can only be called by the current owner."
      },
      "withdraw(uint256)": {
        "params": {
          "amount": "the amount to withdraw"
        }
      }
    },
    "title": "TokenVesting",
    "version": 1
  },
  "userdoc": {
    "kind": "user",
    "methods": {
      "computeReleasableAmount(bytes32)": {
        "notice": "Computes the vested amount of tokens for the given vesting schedule identifier."
      },
      "createVestingSchedule(address,uint256,uint256,uint256,bool,uint256)": {
        "notice": "Creates a new vesting schedule for a beneficiary."
      },
      "getVestingSchedule(bytes32)": {
        "notice": "Returns the vesting schedule information for a given identifier."
      },
      "getVestingScheduleByAddressAndIndex(address,uint256)": {
        "notice": "Returns the vesting schedule information for a given holder and index."
      },
      "getVestingSchedulesTotalAmount()": {
        "notice": "Returns the total amount of vesting schedules."
      },
      "release(bytes32,uint256)": {
        "notice": "Release vested amount of tokens."
      },
      "revoke(bytes32)": {
        "notice": "Revokes the vesting schedule for given identifier."
      },
      "withdraw(uint256)": {
        "notice": "Withdraw the specified amount if possible."
      }
    },
    "version": 1
  }
}